{
  "contractName": "MyHyperverseToken",
  "abi": [
    {
      "inputs": [
        {
          "internalType": "uint256",
          "name": "_totalSupply",
          "type": "uint256"
        }
      ],
      "stateMutability": "nonpayable",
      "type": "constructor"
    },
    {
      "inputs": [
        {
          "internalType": "address",
          "name": "",
          "type": "address"
        }
      ],
      "name": "balanceOf",
      "outputs": [
        {
          "internalType": "uint256",
          "name": "",
          "type": "uint256"
        }
      ],
      "stateMutability": "view",
      "type": "function",
      "constant": true
    },
    {
      "inputs": [],
      "name": "name",
      "outputs": [
        {
          "internalType": "string",
          "name": "",
          "type": "string"
        }
      ],
      "stateMutability": "view",
      "type": "function",
      "constant": true
    },
    {
      "inputs": [],
      "name": "standard",
      "outputs": [
        {
          "internalType": "string",
          "name": "",
          "type": "string"
        }
      ],
      "stateMutability": "view",
      "type": "function",
      "constant": true
    },
    {
      "inputs": [],
      "name": "symbol",
      "outputs": [
        {
          "internalType": "string",
          "name": "",
          "type": "string"
        }
      ],
      "stateMutability": "view",
      "type": "function",
      "constant": true
    },
    {
      "inputs": [],
      "name": "totalSupply",
      "outputs": [
        {
          "internalType": "uint256",
          "name": "",
          "type": "uint256"
        }
      ],
      "stateMutability": "view",
      "type": "function",
      "constant": true
    }
  ],
  "bytecode": "0x60806040526040518060400160405280601381526020017f4d79204879706572766572736520546f6b656e000000000000000000000000008152506000908051906020019061004f929190610167565b506040518060400160405280600381526020017f4d485600000000000000000000000000000000000000000000000000000000008152506001908051906020019061009b929190610167565b506040518060400160405280601881526020017f4d79204879706572766572736520546f6b656e2076312e300000000000000000815250600290805190602001906100e7929190610167565b503480156100f457600080fd5b506040516107c43803806107c483398181016040528101906101169190610245565b80600460003373ffffffffffffffffffffffffffffffffffffffff1673ffffffffffffffffffffffffffffffffffffffff1681526020019081526020016000208190555080600381905550506102d3565b828054610173906102a1565b90600052602060002090601f01602090048101928261019557600085556101dc565b82601f106101ae57805160ff19168380011785556101dc565b828001600101855582156101dc579182015b828111156101db5782518255916020019190600101906101c0565b5b5090506101e991906101ed565b5090565b5b808211156102065760008160009055506001016101ee565b5090565b600080fd5b6000819050919050565b6102228161020f565b811461022d57600080fd5b50565b60008151905061023f81610219565b92915050565b60006020828403121561025b5761025a61020a565b5b600061026984828501610230565b91505092915050565b7f4e487b7100000000000000000000000000000000000000000000000000000000600052602260045260246000fd5b600060028204905060018216806102b957607f821691505b602082108114156102cd576102cc610272565b5b50919050565b6104e2806102e26000396000f3fe608060405234801561001057600080fd5b50600436106100575760003560e01c806306fdde031461005c57806318160ddd1461007a5780635a3b7e421461009857806370a08231146100b657806395d89b41146100e6575b600080fd5b610064610104565b6040516100719190610365565b60405180910390f35b610082610192565b60405161008f91906103a0565b60405180910390f35b6100a0610198565b6040516100ad9190610365565b60405180910390f35b6100d060048036038101906100cb919061041e565b610226565b6040516100dd91906103a0565b60405180910390f35b6100ee61023e565b6040516100fb9190610365565b60405180910390f35b600080546101119061047a565b80601f016020809104026020016040519081016040528092919081815260200182805461013d9061047a565b801561018a5780601f1061015f5761010080835404028352916020019161018a565b820191906000526020600020905b81548152906001019060200180831161016d57829003601f168201915b505050505081565b60035481565b600280546101a59061047a565b80601f01602080910402602001604051908101604052809291908181526020018280546101d19061047a565b801561021e5780601f106101f35761010080835404028352916020019161021e565b820191906000526020600020905b81548152906001019060200180831161020157829003601f168201915b505050505081565b60046020528060005260406000206000915090505481565b6001805461024b9061047a565b80601f01602080910402602001604051908101604052809291908181526020018280546102779061047a565b80156102c45780601f10610299576101008083540402835291602001916102c4565b820191906000526020600020905b8154815290600101906020018083116102a757829003601f168201915b505050505081565b600081519050919050565b600082825260208201905092915050565b60005b838110156103065780820151818401526020810190506102eb565b83811115610315576000848401525b50505050565b6000601f19601f8301169050919050565b6000610337826102cc565b61034181856102d7565b93506103518185602086016102e8565b61035a8161031b565b840191505092915050565b6000602082019050818103600083015261037f818461032c565b905092915050565b6000819050919050565b61039a81610387565b82525050565b60006020820190506103b56000830184610391565b92915050565b600080fd5b600073ffffffffffffffffffffffffffffffffffffffff82169050919050565b60006103eb826103c0565b9050919050565b6103fb816103e0565b811461040657600080fd5b50565b600081359050610418816103f2565b92915050565b600060208284031215610434576104336103bb565b5b600061044284828501610409565b91505092915050565b7f4e487b7100000000000000000000000000000000000000000000000000000000600052602260045260246000fd5b6000600282049050600182168061049257607f821691505b602082108114156104a6576104a561044b565b5b5091905056fea2646970667358221220c39f926ad5c084af920388f17b98f794a72f7d973ed46e11fde9081103f5126564736f6c634300080a0033",
  "immutableReferences": {},
  "source": "pragma solidity ^0.8.10;\n\ncontract MyHyperverseToken {\n    \n    string public name = \"My Hyperverse Token\";\n    string public symbol = \"MHV\";\n    string public standard = \"My Hyperverse Token v1.0\";\n\n    uint256 public totalSupply;\n\n    mapping(address => uint256) public balanceOf;\n\n    constructor(uint256 _totalSupply) {\n        balanceOf[msg.sender] = _totalSupply;\n        totalSupply = _totalSupply;\n    }\n}\n",
  "sourcePath": "C:\\Users\\Alexander\\Documents\\Work\\EthTokenPlayground\\contracts\\MyHyperverseToken.sol",
  "compiler": {
    "name": "solc",
    "version": "0.8.10+commit.fc410830.Emscripten.clang"
  },
  "schemaVersion": "3.4.3",
  "updatedAt": "2021-11-21T23:32:29.240Z",
  "networkType": "ethereum",
  "devdoc": {
    "kind": "dev",
    "methods": {},
    "version": 1
  },
  "userdoc": {
    "kind": "user",
    "methods": {},
    "version": 1
  }
}